{
  "contractName": "Task",
  "abi": [
    {
      "inputs": [],
      "name": "taskCount",
      "outputs": [
        {
          "internalType": "uint256",
          "name": "",
          "type": "uint256"
        }
      ],
      "stateMutability": "view",
      "type": "function",
      "constant": true
    },
    {
      "inputs": [
        {
          "internalType": "uint256",
          "name": "",
          "type": "uint256"
        }
      ],
      "name": "tasksArr",
      "outputs": [
        {
          "internalType": "string",
          "name": "taskTitle",
          "type": "string"
        },
        {
          "internalType": "string",
          "name": "taskDescription",
          "type": "string"
        },
        {
          "internalType": "enum Task.Priority",
          "name": "taskPriority",
          "type": "uint8"
        },
        {
          "internalType": "enum Task.Status",
          "name": "taskStatus",
          "type": "uint8"
        },
        {
          "internalType": "uint256",
          "name": "createdAt",
          "type": "uint256"
        },
        {
          "internalType": "uint256",
          "name": "updatedAt",
          "type": "uint256"
        },
        {
          "internalType": "bool",
          "name": "isValue",
          "type": "bool"
        },
        {
          "internalType": "address",
          "name": "user",
          "type": "address"
        }
      ],
      "stateMutability": "view",
      "type": "function",
      "constant": true
    },
    {
      "inputs": [
        {
          "internalType": "string",
          "name": "_taskDescription",
          "type": "string"
        },
        {
          "internalType": "string",
          "name": "_taskTitle",
          "type": "string"
        },
        {
          "internalType": "enum Task.Priority",
          "name": "_taskPriority",
          "type": "uint8"
        },
        {
          "internalType": "string[]",
          "name": "_taskTags",
          "type": "string[]"
        }
      ],
      "name": "addTask",
      "outputs": [],
      "stateMutability": "nonpayable",
      "type": "function"
    },
    {
      "inputs": [
        {
          "internalType": "uint8",
          "name": "_num",
          "type": "uint8"
        },
        {
          "internalType": "string",
          "name": "_taskTitle",
          "type": "string"
        },
        {
          "internalType": "string",
          "name": "_taskDescription",
          "type": "string"
        },
        {
          "internalType": "enum Task.Priority",
          "name": "_taskPriority",
          "type": "uint8"
        },
        {
          "internalType": "string[]",
          "name": "_taskTags",
          "type": "string[]"
        },
        {
          "internalType": "enum Task.Status",
          "name": "_status",
          "type": "uint8"
        }
      ],
      "name": "updateTask",
      "outputs": [],
      "stateMutability": "nonpayable",
      "type": "function"
    },
    {
      "inputs": [
        {
          "internalType": "uint256",
          "name": "_num",
          "type": "uint256"
        }
      ],
      "name": "getTask",
      "outputs": [
        {
          "components": [
            {
              "internalType": "string",
              "name": "taskTitle",
              "type": "string"
            },
            {
              "internalType": "string",
              "name": "taskDescription",
              "type": "string"
            },
            {
              "internalType": "enum Task.Priority",
              "name": "taskPriority",
              "type": "uint8"
            },
            {
              "internalType": "string[]",
              "name": "taskTags",
              "type": "string[]"
            },
            {
              "internalType": "enum Task.Status",
              "name": "taskStatus",
              "type": "uint8"
            },
            {
              "internalType": "uint256",
              "name": "createdAt",
              "type": "uint256"
            },
            {
              "internalType": "uint256",
              "name": "updatedAt",
              "type": "uint256"
            },
            {
              "internalType": "bool",
              "name": "isValue",
              "type": "bool"
            },
            {
              "internalType": "address",
              "name": "user",
              "type": "address"
            }
          ],
          "internalType": "struct Task.TaskStruct",
          "name": "",
          "type": "tuple"
        }
      ],
      "stateMutability": "view",
      "type": "function",
      "constant": true
    },
    {
      "inputs": [],
      "name": "getAllTasks",
      "outputs": [
        {
          "components": [
            {
              "internalType": "string",
              "name": "taskTitle",
              "type": "string"
            },
            {
              "internalType": "string",
              "name": "taskDescription",
              "type": "string"
            },
            {
              "internalType": "enum Task.Priority",
              "name": "taskPriority",
              "type": "uint8"
            },
            {
              "internalType": "string[]",
              "name": "taskTags",
              "type": "string[]"
            },
            {
              "internalType": "enum Task.Status",
              "name": "taskStatus",
              "type": "uint8"
            },
            {
              "internalType": "uint256",
              "name": "createdAt",
              "type": "uint256"
            },
            {
              "internalType": "uint256",
              "name": "updatedAt",
              "type": "uint256"
            },
            {
              "internalType": "bool",
              "name": "isValue",
              "type": "bool"
            },
            {
              "internalType": "address",
              "name": "user",
              "type": "address"
            }
          ],
          "internalType": "struct Task.TaskStruct[]",
          "name": "",
          "type": "tuple[]"
        }
      ],
      "stateMutability": "view",
      "type": "function",
      "constant": true
    },
    {
      "inputs": [],
      "name": "getTaskCount",
      "outputs": [
        {
          "internalType": "uint256",
          "name": "",
          "type": "uint256"
        }
      ],
      "stateMutability": "view",
      "type": "function",
      "constant": true
    }
  ],
  "bytecode": "0x60806040526000805534801561001457600080fd5b50612554806100246000396000f3fe608060405234801561001057600080fd5b506004361061007d5760003560e01c80638e05a21d1161005b5780638e05a21d146100ec578063b6cb58a514610108578063c17a340e14610126578063d1af3597146101445761007d565b80631d65e77e1461008257806335111bd9146100b2578063779900b4146100ce575b600080fd5b61009c60048036038101906100979190611496565b61017b565b6040516100a9919061181b565b60405180910390f35b6100cc60048036038101906100c79190611a7d565b61058d565b005b6100d6610936565b6040516100e39190611ccd565b60405180910390f35b61010660048036038101906101019190611d4d565b610c8e565b005b610110611128565b60405161011d9190611e3d565b60405180910390f35b61012e61112e565b60405161013b9190611e3d565b60405180910390f35b61015e60048036038101906101599190611496565b61113b565b604051610172989796959493929190611ede565b60405180910390f35b6101836112ea565b6000548211156101c8576040517f08c379a00000000000000000000000000000000000000000000000000000000081526004016101bf90611fb6565b60405180910390fd5b600082101561020c576040517f08c379a000000000000000000000000000000000000000000000000000000000815260040161020390612048565b60405180910390fd5b6001600083815260200190815260200160002060070160009054906101000a900460ff1661026f576040517f08c379a0000000000000000000000000000000000000000000000000000000008152600401610266906120da565b60405180910390fd5b600160008381526020019081526020016000206040518061012001604052908160008201805461029e90612129565b80601f01602080910402602001604051908101604052809291908181526020018280546102ca90612129565b80156103175780601f106102ec57610100808354040283529160200191610317565b820191906000526020600020905b8154815290600101906020018083116102fa57829003601f168201915b5050505050815260200160018201805461033090612129565b80601f016020809104026020016040519081016040528092919081815260200182805461035c90612129565b80156103a95780601f1061037e576101008083540402835291602001916103a9565b820191906000526020600020905b81548152906001019060200180831161038c57829003601f168201915b505050505081526020016002820160009054906101000a900460ff1660028111156103d7576103d661155c565b5b60028111156103e9576103e861155c565b5b815260200160038201805480602002602001604051908101604052809291908181526020016000905b828210156104be57838290600052602060002001805461043190612129565b80601f016020809104026020016040519081016040528092919081815260200182805461045d90612129565b80156104aa5780601f1061047f576101008083540402835291602001916104aa565b820191906000526020600020905b81548152906001019060200180831161048d57829003601f168201915b505050505081526020019060010190610412565b5050505081526020016004820160009054906101000a900460ff1660018111156104eb576104ea61155c565b5b60018111156104fd576104fc61155c565b5b815260200160058201548152602001600682015481526020016007820160009054906101000a900460ff161515151581526020016007820160019054906101000a900473ffffffffffffffffffffffffffffffffffffffff1673ffffffffffffffffffffffffffffffffffffffff1673ffffffffffffffffffffffffffffffffffffffff16815250509050919050565b600160008082825461059f9190612189565b925050819055506040518061012001604052808481526020018581526020018360028111156105d1576105d061155c565b5b8152602001828152602001600060018111156105f0576105ef61155c565b5b81526020014281526020014281526020016001151581526020013373ffffffffffffffffffffffffffffffffffffffff168152506001600080548152602001908152602001600020600082015181600001908161064d919061238b565b506020820151816001019081610663919061238b565b5060408201518160020160006101000a81548160ff0219169083600281111561068f5761068e61155c565b5b021790555060608201518160030190805190602001906106b0929190611372565b5060808201518160040160006101000a81548160ff021916908360018111156106dc576106db61155c565b5b021790555060a0820151816005015560c0820151816006015560e08201518160070160006101000a81548160ff0219169083151502179055506101008201518160070160016101000a81548173ffffffffffffffffffffffffffffffffffffffff021916908373ffffffffffffffffffffffffffffffffffffffff160217905550905050600260405180610120016040528085815260200186815260200184600281111561078d5761078c61155c565b5b8152602001838152602001600060018111156107ac576107ab61155c565b5b81526020014281526020014281526020016001151581526020013373ffffffffffffffffffffffffffffffffffffffff168152509080600181540180825580915050600190039060005260206000209060080201600090919091909150600082015181600001908161081e919061238b565b506020820151816001019081610834919061238b565b5060408201518160020160006101000a81548160ff021916908360028111156108605761085f61155c565b5b02179055506060820151816003019080519060200190610881929190611372565b5060808201518160040160006101000a81548160ff021916908360018111156108ad576108ac61155c565b5b021790555060a0820151816005015560c0820151816006015560e08201518160070160006101000a81548160ff0219169083151502179055506101008201518160070160016101000a81548173ffffffffffffffffffffffffffffffffffffffff021916908373ffffffffffffffffffffffffffffffffffffffff160217905550505050505050565b60606002805480602002602001604051908101604052809291908181526020016000905b82821015610c8557838290600052602060002090600802016040518061012001604052908160008201805461098e90612129565b80601f01602080910402602001604051908101604052809291908181526020018280546109ba90612129565b8015610a075780601f106109dc57610100808354040283529160200191610a07565b820191906000526020600020905b8154815290600101906020018083116109ea57829003601f168201915b50505050508152602001600182018054610a2090612129565b80601f0160208091040260200160405190810160405280929190818152602001828054610a4c90612129565b8015610a995780601f10610a6e57610100808354040283529160200191610a99565b820191906000526020600020905b815481529060010190602001808311610a7c57829003601f168201915b505050505081526020016002820160009054906101000a900460ff166002811115610ac757610ac661155c565b5b6002811115610ad957610ad861155c565b5b815260200160038201805480602002602001604051908101604052809291908181526020016000905b82821015610bae578382906000526020600020018054610b2190612129565b80601f0160208091040260200160405190810160405280929190818152602001828054610b4d90612129565b8015610b9a5780601f10610b6f57610100808354040283529160200191610b9a565b820191906000526020600020905b815481529060010190602001808311610b7d57829003601f168201915b505050505081526020019060010190610b02565b5050505081526020016004820160009054906101000a900460ff166001811115610bdb57610bda61155c565b5b6001811115610bed57610bec61155c565b5b815260200160058201548152602001600682015481526020016007820160009054906101000a900460ff161515151581526020016007820160019054906101000a900473ffffffffffffffffffffffffffffffffffffffff1673ffffffffffffffffffffffffffffffffffffffff1673ffffffffffffffffffffffffffffffffffffffff16815250508152602001906001019061095a565b50505050905090565b600160008760ff16815260200190815260200160002060070160009054906101000a900460ff16610cf4576040517f08c379a0000000000000000000000000000000000000000000000000000000008152600401610ceb906120da565b60405180910390fd5b3373ffffffffffffffffffffffffffffffffffffffff16600160008860ff16815260200190815260200160002060070160019054906101000a900473ffffffffffffffffffffffffffffffffffffffff1673ffffffffffffffffffffffffffffffffffffffff1614610d9b576040517f08c379a0000000000000000000000000000000000000000000000000000000008152600401610d92906124cf565b60405180910390fd5b604051806101200160405280868152602001858152602001846002811115610dc657610dc561155c565b5b8152602001838152602001826001811115610de457610de361155c565b5b81526020014281526020014281526020016001151581526020013373ffffffffffffffffffffffffffffffffffffffff16815250600160008860ff1681526020019081526020016000206000820151816000019081610e43919061238b565b506020820151816001019081610e59919061238b565b5060408201518160020160006101000a81548160ff02191690836002811115610e8557610e8461155c565b5b02179055506060820151816003019080519060200190610ea6929190611372565b5060808201518160040160006101000a81548160ff02191690836001811115610ed257610ed161155c565b5b021790555060a0820151816005015560c0820151816006015560e08201518160070160006101000a81548160ff0219169083151502179055506101008201518160070160016101000a81548173ffffffffffffffffffffffffffffffffffffffff021916908373ffffffffffffffffffffffffffffffffffffffff160217905550905050604051806101200160405280868152602001858152602001846002811115610f8157610f8061155c565b5b8152602001838152602001826001811115610f9f57610f9e61155c565b5b81526020014281526020014281526020016001151581526020013373ffffffffffffffffffffffffffffffffffffffff1681525060028760ff1681548110610fea57610fe96124ef565b5b9060005260206000209060080201600082015181600001908161100d919061238b565b506020820151816001019081611023919061238b565b5060408201518160020160006101000a81548160ff0219169083600281111561104f5761104e61155c565b5b02179055506060820151816003019080519060200190611070929190611372565b5060808201518160040160006101000a81548160ff0219169083600181111561109c5761109b61155c565b5b021790555060a0820151816005015560c0820151816006015560e08201518160070160006101000a81548160ff0219169083151502179055506101008201518160070160016101000a81548173ffffffffffffffffffffffffffffffffffffffff021916908373ffffffffffffffffffffffffffffffffffffffff160217905550905050505050505050565b60005481565b6000600280549050905090565b6002818154811061114b57600080fd5b906000526020600020906008020160009150905080600001805461116e90612129565b80601f016020809104026020016040519081016040528092919081815260200182805461119a90612129565b80156111e75780601f106111bc576101008083540402835291602001916111e7565b820191906000526020600020905b8154815290600101906020018083116111ca57829003601f168201915b5050505050908060010180546111fc90612129565b80601f016020809104026020016040519081016040528092919081815260200182805461122890612129565b80156112755780601f1061124a57610100808354040283529160200191611275565b820191906000526020600020905b81548152906001019060200180831161125857829003601f168201915b5050505050908060020160009054906101000a900460ff16908060040160009054906101000a900460ff16908060050154908060060154908060070160009054906101000a900460ff16908060070160019054906101000a900473ffffffffffffffffffffffffffffffffffffffff16905088565b6040518061012001604052806060815260200160608152602001600060028111156113185761131761155c565b5b815260200160608152602001600060018111156113385761133761155c565b5b81526020016000815260200160008152602001600015158152602001600073ffffffffffffffffffffffffffffffffffffffff1681525090565b8280548282559060005260206000209081019282156113ba579160200282015b828111156113b95782518290816113a9919061238b565b5091602001919060010190611392565b5b5090506113c791906113cb565b5090565b5b808211156113eb57600081816113e291906113ef565b506001016113cc565b5090565b5080546113fb90612129565b6000825580601f1061140d575061142c565b601f01602090049060005260206000209081019061142b919061142f565b5b50565b5b80821115611448576000816000905550600101611430565b5090565b6000604051905090565b600080fd5b600080fd5b6000819050919050565b61147381611460565b811461147e57600080fd5b50565b6000813590506114908161146a565b92915050565b6000602082840312156114ac576114ab611456565b5b60006114ba84828501611481565b91505092915050565b600081519050919050565b600082825260208201905092915050565b60005b838110156114fd5780820151818401526020810190506114e2565b8381111561150c576000848401525b50505050565b6000601f19601f8301169050919050565b600061152e826114c3565b61153881856114ce565b93506115488185602086016114df565b61155181611512565b840191505092915050565b7f4e487b7100000000000000000000000000000000000000000000000000000000600052602160045260246000fd5b6003811061159c5761159b61155c565b5b50565b60008190506115ad8261158b565b919050565b60006115bd8261159f565b9050919050565b6115cd816115b2565b82525050565b600081519050919050565b600082825260208201905092915050565b6000819050602082019050919050565b600061160b8383611523565b905092915050565b6000602082019050919050565b600061162b826115d3565b61163581856115de565b935083602082028501611647856115ef565b8060005b85811015611683578484038952815161166485826115ff565b945061166f83611613565b925060208a0199505060018101905061164b565b50829750879550505050505092915050565b600281106116a6576116a561155c565b5b50565b60008190506116b782611695565b919050565b60006116c7826116a9565b9050919050565b6116d7816116bc565b82525050565b6116e681611460565b82525050565b60008115159050919050565b611701816116ec565b82525050565b600073ffffffffffffffffffffffffffffffffffffffff82169050919050565b600061173282611707565b9050919050565b61174281611727565b82525050565b60006101208301600083015184820360008601526117668282611523565b915050602083015184820360208601526117808282611523565b915050604083015161179560408601826115c4565b50606083015184820360608601526117ad8282611620565b91505060808301516117c260808601826116ce565b5060a08301516117d560a08601826116dd565b5060c08301516117e860c08601826116dd565b5060e08301516117fb60e08601826116f8565b50610100830151611810610100860182611739565b508091505092915050565b600060208201905081810360008301526118358184611748565b905092915050565b600080fd5b600080fd5b7f4e487b7100000000000000000000000000000000000000000000000000000000600052604160045260246000fd5b61187f82611512565b810181811067ffffffffffffffff8211171561189e5761189d611847565b5b80604052505050565b60006118b161144c565b90506118bd8282611876565b919050565b600067ffffffffffffffff8211156118dd576118dc611847565b5b6118e682611512565b9050602081019050919050565b82818337600083830152505050565b6000611915611910846118c2565b6118a7565b90508281526020810184848401111561193157611930611842565b5b61193c8482856118f3565b509392505050565b600082601f8301126119595761195861183d565b5b8135611969848260208601611902565b91505092915050565b6003811061197f57600080fd5b50565b60008135905061199181611972565b92915050565b600067ffffffffffffffff8211156119b2576119b1611847565b5b602082029050602081019050919050565b600080fd5b60006119db6119d684611997565b6118a7565b905080838252602082019050602084028301858111156119fe576119fd6119c3565b5b835b81811015611a4557803567ffffffffffffffff811115611a2357611a2261183d565b5b808601611a308982611944565b85526020850194505050602081019050611a00565b5050509392505050565b600082601f830112611a6457611a6361183d565b5b8135611a748482602086016119c8565b91505092915050565b60008060008060808587031215611a9757611a96611456565b5b600085013567ffffffffffffffff811115611ab557611ab461145b565b5b611ac187828801611944565b945050602085013567ffffffffffffffff811115611ae257611ae161145b565b5b611aee87828801611944565b9350506040611aff87828801611982565b925050606085013567ffffffffffffffff811115611b2057611b1f61145b565b5b611b2c87828801611a4f565b91505092959194509250565b600081519050919050565b600082825260208201905092915050565b6000819050602082019050919050565b6000610120830160008301518482036000860152611b828282611523565b91505060208301518482036020860152611b9c8282611523565b9150506040830151611bb160408601826115c4565b5060608301518482036060860152611bc98282611620565b9150506080830151611bde60808601826116ce565b5060a0830151611bf160a08601826116dd565b5060c0830151611c0460c08601826116dd565b5060e0830151611c1760e08601826116f8565b50610100830151611c2c610100860182611739565b508091505092915050565b6000611c438383611b64565b905092915050565b6000602082019050919050565b6000611c6382611b38565b611c6d8185611b43565b935083602082028501611c7f85611b54565b8060005b85811015611cbb5784840389528151611c9c8582611c37565b9450611ca783611c4b565b925060208a01995050600181019050611c83565b50829750879550505050505092915050565b60006020820190508181036000830152611ce78184611c58565b905092915050565b600060ff82169050919050565b611d0581611cef565b8114611d1057600080fd5b50565b600081359050611d2281611cfc565b92915050565b60028110611d3557600080fd5b50565b600081359050611d4781611d28565b92915050565b60008060008060008060c08789031215611d6a57611d69611456565b5b6000611d7889828a01611d13565b965050602087013567ffffffffffffffff811115611d9957611d9861145b565b5b611da589828a01611944565b955050604087013567ffffffffffffffff811115611dc657611dc561145b565b5b611dd289828a01611944565b9450506060611de389828a01611982565b935050608087013567ffffffffffffffff811115611e0457611e0361145b565b5b611e1089828a01611a4f565b92505060a0611e2189828a01611d38565b9150509295509295509295565b611e3781611460565b82525050565b6000602082019050611e526000830184611e2e565b92915050565b600082825260208201905092915050565b6000611e74826114c3565b611e7e8185611e58565b9350611e8e8185602086016114df565b611e9781611512565b840191505092915050565b611eab816115b2565b82525050565b611eba816116bc565b82525050565b611ec9816116ec565b82525050565b611ed881611727565b82525050565b6000610100820190508181036000830152611ef9818b611e69565b90508181036020830152611f0d818a611e69565b9050611f1c6040830189611ea2565b611f296060830188611eb1565b611f366080830187611e2e565b611f4360a0830186611e2e565b611f5060c0830185611ec0565b611f5d60e0830184611ecf565b9998505050505050505050565b7f496e76616c6964205461736b204e756d62657200000000000000000000000000600082015250565b6000611fa0601383611e58565b9150611fab82611f6a565b602082019050919050565b60006020820190508181036000830152611fcf81611f93565b9050919050565b7f5461736b20636f756e742063616e206e6f74206265206c657373207468616e2060008201527f7a65726f00000000000000000000000000000000000000000000000000000000602082015250565b6000612032602483611e58565b915061203d82611fd6565b604082019050919050565b6000602082019050818103600083015261206181612025565b9050919050565b7f5461736b206974656d20646f6573206e6f742065786973747320796f7520776160008201527f6e7420746f207570646174650000000000000000000000000000000000000000602082015250565b60006120c4602c83611e58565b91506120cf82612068565b604082019050919050565b600060208201905081810360008301526120f3816120b7565b9050919050565b7f4e487b7100000000000000000000000000000000000000000000000000000000600052602260045260246000fd5b6000600282049050600182168061214157607f821691505b602082108103612154576121536120fa565b5b50919050565b7f4e487b7100000000000000000000000000000000000000000000000000000000600052601160045260246000fd5b600061219482611460565b915061219f83611460565b9250827fffffffffffffffffffffffffffffffffffffffffffffffffffffffffffffffff038211156121d4576121d361215a565b5b828201905092915050565b60008190508160005260206000209050919050565b60006020601f8301049050919050565b600082821b905092915050565b6000600883026122417fffffffffffffffffffffffffffffffffffffffffffffffffffffffffffffffff82612204565b61224b8683612204565b95508019841693508086168417925050509392505050565b6000819050919050565b600061228861228361227e84611460565b612263565b611460565b9050919050565b6000819050919050565b6122a28361226d565b6122b66122ae8261228f565b848454612211565b825550505050565b600090565b6122cb6122be565b6122d6818484612299565b505050565b5b818110156122fa576122ef6000826122c3565b6001810190506122dc565b5050565b601f82111561233f57612310816121df565b612319846121f4565b81016020851015612328578190505b61233c612334856121f4565b8301826122db565b50505b505050565b600082821c905092915050565b600061236260001984600802612344565b1980831691505092915050565b600061237b8383612351565b9150826002028217905092915050565b612394826114c3565b67ffffffffffffffff8111156123ad576123ac611847565b5b6123b78254612129565b6123c28282856122fe565b600060209050601f8311600181146123f557600084156123e3578287015190505b6123ed858261236f565b865550612455565b601f198416612403866121df565b60005b8281101561242b57848901518255600182019150602085019450602081019050612406565b868310156124485784890151612444601f891682612351565b8355505b6001600288020188555050505b505050505050565b7f4e6f7420617574686f72697a656420746f20757064617465207468652074617360008201527f6b206974656d2100000000000000000000000000000000000000000000000000602082015250565b60006124b9602783611e58565b91506124c48261245d565b604082019050919050565b600060208201905081810360008301526124e8816124ac565b9050919050565b7f4e487b7100000000000000000000000000000000000000000000000000000000600052603260045260246000fdfea2646970667358221220a148a2b09c87ef5a083d65f74b1456578cfef68a7e6075e10b6ebc26a510264c64736f6c634300080f0033",
  "immutableReferences": {},
  "source": "//SPDX-License-Identifier: UNLICENSED\r\npragma solidity ^0.8.0;\r\n\r\ncontract Task {\r\n    uint256 public taskCount = 0;\r\n    //@Task list of users\r\n\r\n    // list of tasks\r\n    enum Status {\r\n        pending,\r\n        done\r\n    }\r\n    enum Priority {\r\n        normal,\r\n        urgent,\r\n        sensitive\r\n    }\r\n\r\n    struct TaskStruct {\r\n        string taskTitle;\r\n        string taskDescription;\r\n        Priority taskPriority;\r\n        string[] taskTags;\r\n        Status taskStatus;\r\n        uint256 createdAt;\r\n        uint256 updatedAt;\r\n        bool isValue;\r\n        address user;\r\n    }\r\n\r\n    mapping(uint256 => TaskStruct) tasks;\r\n    TaskStruct[] public tasksArr;\r\n\r\n    // user to tasks relation\r\n\r\n    // ---------- Functions ----------- //\r\n\r\n    function addTask(\r\n        string memory _taskDescription,\r\n        string memory _taskTitle,\r\n        Priority _taskPriority,\r\n        string[] memory _taskTags\r\n    ) public {\r\n        // update task count\r\n        taskCount += 1;\r\n        // add task to tasks mapping\r\n        tasks[taskCount] = TaskStruct({\r\n            taskTitle: _taskTitle,\r\n            taskDescription: _taskDescription,\r\n            taskPriority: Priority(_taskPriority),\r\n            taskTags: _taskTags,\r\n            taskStatus: Status.pending,\r\n            createdAt: block.timestamp,\r\n            updatedAt: block.timestamp,\r\n            isValue: true,\r\n            user: msg.sender\r\n        });\r\n        tasksArr.push(\r\n            TaskStruct({\r\n                taskTitle: _taskTitle,\r\n                taskDescription: _taskDescription,\r\n                taskPriority: Priority(_taskPriority),\r\n                taskTags: _taskTags,\r\n                taskStatus: Status.pending,\r\n                createdAt: block.timestamp,\r\n                updatedAt: block.timestamp,\r\n                isValue: true,\r\n                user: msg.sender\r\n            })\r\n        );\r\n    }\r\n\r\n    function updateTask(\r\n        uint8 _num,\r\n        string memory _taskTitle,\r\n        string memory _taskDescription,\r\n        Priority _taskPriority,\r\n        string[] memory _taskTags,\r\n        Status _status\r\n    ) public {\r\n        // check if the task item exists\r\n        require(\r\n            tasks[_num].isValue,\r\n            \"Task item does not exists you want to update\"\r\n        );\r\n        // check if user updating the task is the one who had created it\r\n        require(\r\n            tasks[_num].user == msg.sender,\r\n            \"Not authorized to update the task item!\"\r\n        );\r\n        tasks[_num] = TaskStruct({\r\n            taskTitle: _taskTitle,\r\n            taskDescription: _taskDescription,\r\n            taskPriority: Priority(_taskPriority),\r\n            taskTags: _taskTags,\r\n            taskStatus: Status(_status),\r\n            createdAt: block.timestamp,\r\n            updatedAt: block.timestamp,\r\n            isValue: true,\r\n            user: msg.sender\r\n        });\r\n        tasksArr[_num] = TaskStruct({\r\n            taskTitle: _taskTitle,\r\n            taskDescription: _taskDescription,\r\n            taskPriority: Priority(_taskPriority),\r\n            taskTags: _taskTags,\r\n            taskStatus: Status(_status),\r\n            createdAt: block.timestamp,\r\n            updatedAt: block.timestamp,\r\n            isValue: true,\r\n            user: msg.sender\r\n        });\r\n    }\r\n\r\n    // get single task\r\n    function getTask(uint256 _num) public view returns (TaskStruct memory) {\r\n        require(_num <= taskCount, \"Invalid Task Number\");\r\n        require(_num >= 0, \"Task count can not be less than zero\");\r\n        // check if the task item exists\r\n        require(\r\n            tasks[_num].isValue,\r\n            \"Task item does not exists you want to update\"\r\n        );\r\n        return tasks[_num];\r\n    }\r\n\r\n    function getAllTasks() public view returns (TaskStruct[] memory) {\r\n        return tasksArr;\r\n    }\r\n\r\n    function getTaskCount() public view returns (uint256) {\r\n        return tasksArr.length;\r\n    }\r\n}\r\n",
  "sourcePath": "C:\\web development\\My Projects\\Blockchain\\todo_3.0\\contracts\\Todo.sol",
  "compiler": {
    "name": "solc",
    "version": "0.8.15+commit.e14f2714.Emscripten.clang"
  },
  "schemaVersion": "3.4.7",
  "updatedAt": "2022-06-26T10:46:53.304Z",
  "networkType": "ethereum",
  "devdoc": {
    "kind": "dev",
    "methods": {},
    "version": 1
  },
  "userdoc": {
    "kind": "user",
    "methods": {},
    "version": 1
  }
}