{
  "contractName": "Todo",
  "abi": [
    {
      "inputs": [],
      "name": "todoCount",
      "outputs": [
        {
          "internalType": "uint256",
          "name": "",
          "type": "uint256"
        }
      ],
      "stateMutability": "view",
      "type": "function",
      "constant": true
    },
    {
      "inputs": [
        {
          "internalType": "uint256",
          "name": "",
          "type": "uint256"
        }
      ],
      "name": "todosArr",
      "outputs": [
        {
          "internalType": "string",
          "name": "todo",
          "type": "string"
        },
        {
          "internalType": "enum Todo.Status",
          "name": "status",
          "type": "uint8"
        },
        {
          "internalType": "uint256",
          "name": "createdAt",
          "type": "uint256"
        },
        {
          "internalType": "uint256",
          "name": "updatedAt",
          "type": "uint256"
        },
        {
          "internalType": "bool",
          "name": "isValue",
          "type": "bool"
        }
      ],
      "stateMutability": "view",
      "type": "function",
      "constant": true
    },
    {
      "inputs": [
        {
          "internalType": "string",
          "name": "_todo",
          "type": "string"
        }
      ],
      "name": "addTodo",
      "outputs": [],
      "stateMutability": "nonpayable",
      "type": "function"
    },
    {
      "inputs": [
        {
          "internalType": "uint256",
          "name": "_num",
          "type": "uint256"
        },
        {
          "internalType": "string",
          "name": "_todo",
          "type": "string"
        },
        {
          "internalType": "string",
          "name": "_status",
          "type": "string"
        }
      ],
      "name": "updateTodo",
      "outputs": [],
      "stateMutability": "nonpayable",
      "type": "function"
    },
    {
      "inputs": [
        {
          "internalType": "uint256",
          "name": "_num",
          "type": "uint256"
        }
      ],
      "name": "getTodo",
      "outputs": [
        {
          "internalType": "string",
          "name": "",
          "type": "string"
        }
      ],
      "stateMutability": "view",
      "type": "function",
      "constant": true
    },
    {
      "inputs": [],
      "name": "getAllTodos",
      "outputs": [
        {
          "components": [
            {
              "internalType": "string",
              "name": "todo",
              "type": "string"
            },
            {
              "internalType": "enum Todo.Status",
              "name": "status",
              "type": "uint8"
            },
            {
              "internalType": "uint256",
              "name": "createdAt",
              "type": "uint256"
            },
            {
              "internalType": "uint256",
              "name": "updatedAt",
              "type": "uint256"
            },
            {
              "internalType": "bool",
              "name": "isValue",
              "type": "bool"
            }
          ],
          "internalType": "struct Todo.TodoStruct[]",
          "name": "",
          "type": "tuple[]"
        }
      ],
      "stateMutability": "view",
      "type": "function",
      "constant": true
    },
    {
      "inputs": [],
      "name": "getAllTodosCount",
      "outputs": [
        {
          "internalType": "uint256",
          "name": "",
          "type": "uint256"
        }
      ],
      "stateMutability": "view",
      "type": "function",
      "constant": true
    },
    {
      "inputs": [
        {
          "internalType": "uint256",
          "name": "_num",
          "type": "uint256"
        }
      ],
      "name": "getTodoByIndex",
      "outputs": [
        {
          "internalType": "string",
          "name": "todo",
          "type": "string"
        },
        {
          "internalType": "enum Todo.Status",
          "name": "",
          "type": "uint8"
        },
        {
          "internalType": "uint256",
          "name": "createAt",
          "type": "uint256"
        },
        {
          "internalType": "uint256",
          "name": "updatedAt",
          "type": "uint256"
        }
      ],
      "stateMutability": "view",
      "type": "function",
      "constant": true
    }
  ],
  "bytecode": "0x60806040526000805534801561001457600080fd5b50611ad0806100246000396000f3fe608060405234801561001057600080fd5b50600436106100885760003560e01c8063cd6aab581161005b578063cd6aab5814610117578063ce2bd5d51461014a578063dd68afb614610168578063fe0dee171461019857610088565b806337995c881461008d57806381e94199146100c15780638642ccfa146100dd57806395ffebf5146100fb575b600080fd5b6100a760048036038101906100a29190610e34565b6101b6565b6040516100b8959493929190610f9b565b60405180910390f35b6100db60048036038101906100d6919061112a565b61029e565b005b6100e561078e565b6040516100f291906111b5565b60405180910390f35b610115600480360381019061011091906111d0565b61079b565b005b610131600480360381019061012c9190610e34565b6109ad565b6040516101419493929190611219565b60405180910390f35b610152610be1565b60405161015f9190611414565b60405180910390f35b610182600480360381019061017d9190610e34565b610d3c565b60405161018f9190611436565b60405180910390f35b6101a0610de4565b6040516101ad91906111b5565b60405180910390f35b600281815481106101c657600080fd5b90600052602060002090600502016000915090508060000180546101e990611487565b80601f016020809104026020016040519081016040528092919081815260200182805461021590611487565b80156102625780601f1061023757610100808354040283529160200191610262565b820191906000526020600020905b81548152906001019060200180831161024557829003601f168201915b5050505050908060010160009054906101000a900460ff16908060020154908060030154908060040160009054906101000a900460ff16905085565b6000548311156102e3576040517f08c379a00000000000000000000000000000000000000000000000000000000081526004016102da90611504565b60405180910390fd5b6000831015610327576040517f08c379a000000000000000000000000000000000000000000000000000000000815260040161031e90611596565b60405180910390fd5b6001600084815260200190815260200160002060040160009054906101000a900460ff1661038a576040517f08c379a000000000000000000000000000000000000000000000000000000000815260040161038190611628565b60405180910390fd5b6040516020016103999061169f565b60405160208183030381529060405280519060200120816040516020016103c091906116e5565b60405160208183030381529060405280519060200120036105b3576040518060a001604052808381526020016001808111156103ff576103fe610efa565b5b8152602001600160008681526020019081526020016000206002015481526020014281526020016001151581525060016000858152602001908152602001600020600082015181600001908161045591906118a8565b5060208201518160010160006101000a81548160ff0219169083600181111561048157610480610efa565b5b0217905550604082015181600201556060820151816003015560808201518160040160006101000a81548160ff0219169083151502179055509050506040518060a001604052808381526020016001808111156104e1576104e0610efa565b5b81526020016001600086815260200190815260200160002060020154815260200142815260200160011515815250600284815481106105235761052261197a565b5b9060005260206000209060050201600082015181600001908161054691906118a8565b5060208201518160010160006101000a81548160ff0219169083600181111561057257610571610efa565b5b0217905550604082015181600201556060820151816003015560808201518160040160006101000a81548160ff021916908315150217905550905050610789565b6040518060a00160405280838152602001600060018111156105d8576105d7610efa565b5b8152602001600160008681526020019081526020016000206002015481526020014281526020016001151581525060016000858152602001908152602001600020600082015181600001908161062e91906118a8565b5060208201518160010160006101000a81548160ff0219169083600181111561065a57610659610efa565b5b0217905550604082015181600201556060820151816003015560808201518160040160006101000a81548160ff0219169083151502179055509050506040518060a00160405280838152602001600060018111156106bb576106ba610efa565b5b81526020016001600086815260200190815260200160002060020154815260200142815260200160011515815250600284815481106106fd576106fc61197a565b5b9060005260206000209060050201600082015181600001908161072091906118a8565b5060208201518160010160006101000a81548160ff0219169083600181111561074c5761074b610efa565b5b0217905550604082015181600201556060820151816003015560808201518160040160006101000a81548160ff0219169083151502179055509050505b505050565b6000600280549050905090565b60008151116107df576040517f08c379a00000000000000000000000000000000000000000000000000000000081526004016107d6906119f5565b60405180910390fd5b60016000808282546107f19190611a44565b925050819055506040518060a001604052808281526020016000600181111561081d5761081c610efa565b5b8152602001428152602001428152602001600115158152506001600080548152602001908152602001600020600082015181600001908161085e91906118a8565b5060208201518160010160006101000a81548160ff0219169083600181111561088a57610889610efa565b5b0217905550604082015181600201556060820151816003015560808201518160040160006101000a81548160ff02191690831515021790555090505060026040518060a00160405280838152602001600060018111156108ed576108ec610efa565b5b8152602001428152602001428152602001600115158152509080600181540180825580915050600190039060005260206000209060050201600090919091909150600082015181600001908161094391906118a8565b5060208201518160010160006101000a81548160ff0219169083600181111561096f5761096e610efa565b5b0217905550604082015181600201556060820151816003015560808201518160040160006101000a81548160ff021916908315150217905550505050565b6060600080600080548511156109f8576040517f08c379a00000000000000000000000000000000000000000000000000000000081526004016109ef90611504565b60405180910390fd5b6000851015610a3c576040517f08c379a0000000000000000000000000000000000000000000000000000000008152600401610a3390611596565b60405180910390fd5b6001600086815260200190815260200160002060040160009054906101000a900460ff16610a9f576040517f08c379a0000000000000000000000000000000000000000000000000000000008152600401610a9690611628565b60405180910390fd5b6000600160008781526020019081526020016000206040518060a0016040529081600082018054610acf90611487565b80601f0160208091040260200160405190810160405280929190818152602001828054610afb90611487565b8015610b485780601f10610b1d57610100808354040283529160200191610b48565b820191906000526020600020905b815481529060010190602001808311610b2b57829003601f168201915b505050505081526020016001820160009054906101000a900460ff166001811115610b7657610b75610efa565b5b6001811115610b8857610b87610efa565b5b815260200160028201548152602001600382015481526020016004820160009054906101000a900460ff161515151581525050905080600001518160200151826040015183606001519450945094509450509193509193565b60606002805480602002602001604051908101604052809291908181526020016000905b82821015610d3357838290600052602060002090600502016040518060a0016040529081600082018054610c3890611487565b80601f0160208091040260200160405190810160405280929190818152602001828054610c6490611487565b8015610cb15780601f10610c8657610100808354040283529160200191610cb1565b820191906000526020600020905b815481529060010190602001808311610c9457829003601f168201915b505050505081526020016001820160009054906101000a900460ff166001811115610cdf57610cde610efa565b5b6001811115610cf157610cf0610efa565b5b815260200160028201548152602001600382015481526020016004820160009054906101000a900460ff16151515158152505081526020019060010190610c05565b50505050905090565b6060600160008381526020019081526020016000206000018054610d5f90611487565b80601f0160208091040260200160405190810160405280929190818152602001828054610d8b90611487565b8015610dd85780601f10610dad57610100808354040283529160200191610dd8565b820191906000526020600020905b815481529060010190602001808311610dbb57829003601f168201915b50505050509050919050565b60005481565b6000604051905090565b600080fd5b600080fd5b6000819050919050565b610e1181610dfe565b8114610e1c57600080fd5b50565b600081359050610e2e81610e08565b92915050565b600060208284031215610e4a57610e49610df4565b5b6000610e5884828501610e1f565b91505092915050565b600081519050919050565b600082825260208201905092915050565b60005b83811015610e9b578082015181840152602081019050610e80565b83811115610eaa576000848401525b50505050565b6000601f19601f8301169050919050565b6000610ecc82610e61565b610ed68185610e6c565b9350610ee6818560208601610e7d565b610eef81610eb0565b840191505092915050565b7f4e487b7100000000000000000000000000000000000000000000000000000000600052602160045260246000fd5b60028110610f3a57610f39610efa565b5b50565b6000819050610f4b82610f29565b919050565b6000610f5b82610f3d565b9050919050565b610f6b81610f50565b82525050565b610f7a81610dfe565b82525050565b60008115159050919050565b610f9581610f80565b82525050565b600060a0820190508181036000830152610fb58188610ec1565b9050610fc46020830187610f62565b610fd16040830186610f71565b610fde6060830185610f71565b610feb6080830184610f8c565b9695505050505050565b600080fd5b600080fd5b7f4e487b7100000000000000000000000000000000000000000000000000000000600052604160045260246000fd5b61103782610eb0565b810181811067ffffffffffffffff8211171561105657611055610fff565b5b80604052505050565b6000611069610dea565b9050611075828261102e565b919050565b600067ffffffffffffffff82111561109557611094610fff565b5b61109e82610eb0565b9050602081019050919050565b82818337600083830152505050565b60006110cd6110c88461107a565b61105f565b9050828152602081018484840111156110e9576110e8610ffa565b5b6110f48482856110ab565b509392505050565b600082601f83011261111157611110610ff5565b5b81356111218482602086016110ba565b91505092915050565b60008060006060848603121561114357611142610df4565b5b600061115186828701610e1f565b935050602084013567ffffffffffffffff81111561117257611171610df9565b5b61117e868287016110fc565b925050604084013567ffffffffffffffff81111561119f5761119e610df9565b5b6111ab868287016110fc565b9150509250925092565b60006020820190506111ca6000830184610f71565b92915050565b6000602082840312156111e6576111e5610df4565b5b600082013567ffffffffffffffff81111561120457611203610df9565b5b611210848285016110fc565b91505092915050565b600060808201905081810360008301526112338187610ec1565b90506112426020830186610f62565b61124f6040830185610f71565b61125c6060830184610f71565b95945050505050565b600081519050919050565b600082825260208201905092915050565b6000819050602082019050919050565b600082825260208201905092915050565b60006112ad82610e61565b6112b78185611291565b93506112c7818560208601610e7d565b6112d081610eb0565b840191505092915050565b6112e481610f50565b82525050565b6112f381610dfe565b82525050565b61130281610f80565b82525050565b600060a083016000830151848203600086015261132582826112a2565b915050602083015161133a60208601826112db565b50604083015161134d60408601826112ea565b50606083015161136060608601826112ea565b50608083015161137360808601826112f9565b508091505092915050565b600061138a8383611308565b905092915050565b6000602082019050919050565b60006113aa82611265565b6113b48185611270565b9350836020820285016113c685611281565b8060005b8581101561140257848403895281516113e3858261137e565b94506113ee83611392565b925060208a019950506001810190506113ca565b50829750879550505050505092915050565b6000602082019050818103600083015261142e818461139f565b905092915050565b600060208201905081810360008301526114508184610ec1565b905092915050565b7f4e487b7100000000000000000000000000000000000000000000000000000000600052602260045260246000fd5b6000600282049050600182168061149f57607f821691505b6020821081036114b2576114b1611458565b5b50919050565b7f496e76616c696420546f646f204e756d62657200000000000000000000000000600082015250565b60006114ee601383610e6c565b91506114f9826114b8565b602082019050919050565b6000602082019050818103600083015261151d816114e1565b9050919050565b7f546f646f20636f756e742063616e206e6f74206265206c657373207468616e2060008201527f7a65726f00000000000000000000000000000000000000000000000000000000602082015250565b6000611580602483610e6c565b915061158b82611524565b604082019050919050565b600060208201905081810360008301526115af81611573565b9050919050565b7f546f646f206974656d20646f6573206e6f742065786973747320796f7520776160008201527f6e7420746f207570646174650000000000000000000000000000000000000000602082015250565b6000611612602c83610e6c565b915061161d826115b6565b604082019050919050565b6000602082019050818103600083015261164181611605565b9050919050565b600081905092915050565b7f646f6e6500000000000000000000000000000000000000000000000000000000600082015250565b6000611689600483611648565b915061169482611653565b600482019050919050565b60006116aa8261167c565b9150819050919050565b60006116bf82610e61565b6116c98185611648565b93506116d9818560208601610e7d565b80840191505092915050565b60006116f182846116b4565b915081905092915050565b60008190508160005260206000209050919050565b60006020601f8301049050919050565b600082821b905092915050565b60006008830261175e7fffffffffffffffffffffffffffffffffffffffffffffffffffffffffffffffff82611721565b6117688683611721565b95508019841693508086168417925050509392505050565b6000819050919050565b60006117a56117a061179b84610dfe565b611780565b610dfe565b9050919050565b6000819050919050565b6117bf8361178a565b6117d36117cb826117ac565b84845461172e565b825550505050565b600090565b6117e86117db565b6117f38184846117b6565b505050565b5b818110156118175761180c6000826117e0565b6001810190506117f9565b5050565b601f82111561185c5761182d816116fc565b61183684611711565b81016020851015611845578190505b61185961185185611711565b8301826117f8565b50505b505050565b600082821c905092915050565b600061187f60001984600802611861565b1980831691505092915050565b6000611898838361186e565b9150826002028217905092915050565b6118b182610e61565b67ffffffffffffffff8111156118ca576118c9610fff565b5b6118d48254611487565b6118df82828561181b565b600060209050601f8311600181146119125760008415611900578287015190505b61190a858261188c565b865550611972565b601f198416611920866116fc565b60005b8281101561194857848901518255600182019150602085019450602081019050611923565b868310156119655784890151611961601f89168261186e565b8355505b6001600288020188555050505b505050505050565b7f4e487b7100000000000000000000000000000000000000000000000000000000600052603260045260246000fd5b7f506c656173652061646420612076616c696420746f646f206974656d21000000600082015250565b60006119df601d83610e6c565b91506119ea826119a9565b602082019050919050565b60006020820190508181036000830152611a0e816119d2565b9050919050565b7f4e487b7100000000000000000000000000000000000000000000000000000000600052601160045260246000fd5b6000611a4f82610dfe565b9150611a5a83610dfe565b9250827fffffffffffffffffffffffffffffffffffffffffffffffffffffffffffffffff03821115611a8f57611a8e611a15565b5b82820190509291505056fea2646970667358221220529ea4a208c0604087a2d05ea520823d2114c5f223013b4800c165dceb4e696d64736f6c634300080f0033",
  "immutableReferences": {},
  "source": "//SPDX-License-Identifier: UNLICENSED\r\npragma solidity ^0.8.0;\r\n\r\ncontract Todo {\r\n    uint256 public todoCount = 0;\r\n    //@TODO list of users\r\n\r\n    // list of todos\r\n    enum Status {\r\n        pending,\r\n        done\r\n    }\r\n\r\n    struct TodoStruct {\r\n        string todo;\r\n        Status status;\r\n        uint256 createdAt;\r\n        uint256 updatedAt;\r\n        bool isValue;\r\n    }\r\n    mapping(uint256 => TodoStruct) todos;\r\n    TodoStruct[] public todosArr;\r\n\r\n    // user to todos relation\r\n\r\n    // ---------- Functions ----------- //\r\n\r\n    function addTodo(string memory _todo) public {\r\n        require(bytes(_todo).length > 0, \"Please add a valid todo item!\");\r\n        // update todo count\r\n        todoCount += 1;\r\n        // add todo to todos mapping\r\n        todos[todoCount] = TodoStruct(\r\n            _todo,\r\n            Status.pending,\r\n            block.timestamp,\r\n            block.timestamp,\r\n            true\r\n        );\r\n        todosArr.push(\r\n            TodoStruct(\r\n                _todo,\r\n                Status.pending,\r\n                block.timestamp,\r\n                block.timestamp,\r\n                true\r\n            )\r\n        );\r\n    }\r\n\r\n    function updateTodo(\r\n        uint256 _num,\r\n        string memory _todo,\r\n        string memory _status\r\n    ) public {\r\n        require(_num <= todoCount, \"Invalid Todo Number\");\r\n        require(_num >= 0, \"Todo count can not be less than zero\");\r\n        // check if the todo item exists\r\n        require(\r\n            todos[_num].isValue,\r\n            \"Todo item does not exists you want to update\"\r\n        );\r\n        if (\r\n            keccak256(abi.encodePacked(_status)) ==\r\n            keccak256(abi.encodePacked(\"done\"))\r\n        ) {\r\n            todos[_num] = TodoStruct(\r\n                _todo,\r\n                Status.done,\r\n                todos[_num].createdAt,\r\n                block.timestamp,\r\n                true\r\n            );\r\n            todosArr[_num] = TodoStruct(\r\n                _todo,\r\n                Status.done,\r\n                todos[_num].createdAt,\r\n                block.timestamp,\r\n                true\r\n            );\r\n        } else {\r\n            todos[_num] = TodoStruct(\r\n                _todo,\r\n                Status.pending,\r\n                todos[_num].createdAt,\r\n                block.timestamp,\r\n                true\r\n            );\r\n            todosArr[_num] = TodoStruct(\r\n                _todo,\r\n                Status.pending,\r\n                todos[_num].createdAt,\r\n                block.timestamp,\r\n                true\r\n            );\r\n        }\r\n    }\r\n\r\n    // get single todo\r\n    function getTodo(uint256 _num) public view returns (string memory) {\r\n        return todos[_num].todo;\r\n    }\r\n\r\n    function getAllTodos() public view returns (TodoStruct[] memory) {\r\n        return todosArr;\r\n    }\r\n\r\n    function getAllTodosCount() public view returns (uint256) {\r\n        return todosArr.length;\r\n    }\r\n\r\n    function getTodoByIndex(uint256 _num)\r\n        public\r\n        view\r\n        returns (\r\n            string memory todo,\r\n            Status,\r\n            uint256 createAt,\r\n            uint256 updatedAt\r\n        )\r\n    {\r\n        require(_num <= todoCount, \"Invalid Todo Number\");\r\n        require(_num >= 0, \"Todo count can not be less than zero\");\r\n        // check if the todo item exists\r\n        require(\r\n            todos[_num].isValue,\r\n            \"Todo item does not exists you want to update\"\r\n        );\r\n        TodoStruct memory todoItem = todos[_num];\r\n        return (\r\n            todoItem.todo,\r\n            todoItem.status,\r\n            todoItem.createdAt,\r\n            todoItem.updatedAt\r\n        );\r\n    }\r\n}\r\n",
  "sourcePath": "C:\\web development\\My Projects\\Blockchain\\todo_3.0\\contracts\\Todo.sol",
  "compiler": {
    "name": "solc",
    "version": "0.8.15+commit.e14f2714.Emscripten.clang"
  },
  "schemaVersion": "3.4.7",
  "updatedAt": "2022-06-23T18:13:02.606Z",
  "networkType": "ethereum",
  "devdoc": {
    "kind": "dev",
    "methods": {},
    "version": 1
  },
  "userdoc": {
    "kind": "user",
    "methods": {},
    "version": 1
  }
}