{
  "contractName": "Todo",
  "abi": [
    {
      "inputs": [],
      "name": "todoCount",
      "outputs": [
        {
          "internalType": "uint256",
          "name": "",
          "type": "uint256"
        }
      ],
      "stateMutability": "view",
      "type": "function",
      "constant": true
    },
    {
      "inputs": [
        {
          "internalType": "uint256",
          "name": "",
          "type": "uint256"
        }
      ],
      "name": "todosArr",
      "outputs": [
        {
          "internalType": "string",
          "name": "task",
          "type": "string"
        },
        {
          "internalType": "string",
          "name": "taskTitle",
          "type": "string"
        },
        {
          "internalType": "enum Todo.Category",
          "name": "taskCategory",
          "type": "uint8"
        },
        {
          "internalType": "enum Todo.Status",
          "name": "status",
          "type": "uint8"
        },
        {
          "internalType": "uint256",
          "name": "createdAt",
          "type": "uint256"
        },
        {
          "internalType": "uint256",
          "name": "updatedAt",
          "type": "uint256"
        },
        {
          "internalType": "bool",
          "name": "isValue",
          "type": "bool"
        },
        {
          "internalType": "address",
          "name": "user",
          "type": "address"
        }
      ],
      "stateMutability": "view",
      "type": "function",
      "constant": true
    },
    {
      "inputs": [
        {
          "internalType": "string",
          "name": "_task",
          "type": "string"
        },
        {
          "internalType": "string",
          "name": "_taskTitle",
          "type": "string"
        },
        {
          "internalType": "enum Todo.Category",
          "name": "_taskCategory",
          "type": "uint8"
        },
        {
          "internalType": "string[]",
          "name": "_taskTags",
          "type": "string[]"
        }
      ],
      "name": "addTodo",
      "outputs": [],
      "stateMutability": "nonpayable",
      "type": "function"
    },
    {
      "inputs": [
        {
          "internalType": "uint8",
          "name": "_num",
          "type": "uint8"
        },
        {
          "internalType": "string",
          "name": "_task",
          "type": "string"
        },
        {
          "internalType": "string",
          "name": "_taskTitle",
          "type": "string"
        },
        {
          "internalType": "enum Todo.Category",
          "name": "_taskCategory",
          "type": "uint8"
        },
        {
          "internalType": "string[]",
          "name": "_taskTags",
          "type": "string[]"
        },
        {
          "internalType": "enum Todo.Status",
          "name": "_status",
          "type": "uint8"
        }
      ],
      "name": "updateTodo",
      "outputs": [],
      "stateMutability": "nonpayable",
      "type": "function"
    },
    {
      "inputs": [
        {
          "internalType": "uint256",
          "name": "_num",
          "type": "uint256"
        }
      ],
      "name": "getTodo",
      "outputs": [
        {
          "components": [
            {
              "internalType": "string",
              "name": "task",
              "type": "string"
            },
            {
              "internalType": "string",
              "name": "taskTitle",
              "type": "string"
            },
            {
              "internalType": "enum Todo.Category",
              "name": "taskCategory",
              "type": "uint8"
            },
            {
              "internalType": "string[]",
              "name": "taskTags",
              "type": "string[]"
            },
            {
              "internalType": "enum Todo.Status",
              "name": "status",
              "type": "uint8"
            },
            {
              "internalType": "uint256",
              "name": "createdAt",
              "type": "uint256"
            },
            {
              "internalType": "uint256",
              "name": "updatedAt",
              "type": "uint256"
            },
            {
              "internalType": "bool",
              "name": "isValue",
              "type": "bool"
            },
            {
              "internalType": "address",
              "name": "user",
              "type": "address"
            }
          ],
          "internalType": "struct Todo.TodoStruct",
          "name": "",
          "type": "tuple"
        }
      ],
      "stateMutability": "view",
      "type": "function",
      "constant": true
    },
    {
      "inputs": [],
      "name": "getAllTodos",
      "outputs": [
        {
          "components": [
            {
              "internalType": "string",
              "name": "task",
              "type": "string"
            },
            {
              "internalType": "string",
              "name": "taskTitle",
              "type": "string"
            },
            {
              "internalType": "enum Todo.Category",
              "name": "taskCategory",
              "type": "uint8"
            },
            {
              "internalType": "string[]",
              "name": "taskTags",
              "type": "string[]"
            },
            {
              "internalType": "enum Todo.Status",
              "name": "status",
              "type": "uint8"
            },
            {
              "internalType": "uint256",
              "name": "createdAt",
              "type": "uint256"
            },
            {
              "internalType": "uint256",
              "name": "updatedAt",
              "type": "uint256"
            },
            {
              "internalType": "bool",
              "name": "isValue",
              "type": "bool"
            },
            {
              "internalType": "address",
              "name": "user",
              "type": "address"
            }
          ],
          "internalType": "struct Todo.TodoStruct[]",
          "name": "",
          "type": "tuple[]"
        }
      ],
      "stateMutability": "view",
      "type": "function",
      "constant": true
    }
  ],
  "bytecode": "0x60806040526000805534801561001457600080fd5b50612abd806100246000396000f3fe608060405234801561001057600080fd5b50600436106100625760003560e01c806337995c88146100675780633ae6574d1461009e578063ce2bd5d5146100ba578063dc80f840146100d8578063dd68afb6146100f4578063fe0dee1714610124575b600080fd5b610081600480360381019061007c91906118d6565b610142565b604051610095989796959493929190611ac6565b60405180910390f35b6100b860048036038101906100b39190611d92565b6102f1565b005b6100c26106de565b6040516100cf9190612139565b60405180910390f35b6100f260048036038101906100ed91906121b9565b610a36565b005b61010e600480360381019061010991906118d6565b611312565b60405161011b919061236d565b60405180910390f35b61012c611724565b604051610139919061238f565b60405180910390f35b6002818154811061015257600080fd5b9060005260206000209060080201600091509050806000018054610175906123d9565b80601f01602080910402602001604051908101604052809291908181526020018280546101a1906123d9565b80156101ee5780601f106101c3576101008083540402835291602001916101ee565b820191906000526020600020905b8154815290600101906020018083116101d157829003601f168201915b505050505090806001018054610203906123d9565b80601f016020809104026020016040519081016040528092919081815260200182805461022f906123d9565b801561027c5780601f106102515761010080835404028352916020019161027c565b820191906000526020600020905b81548152906001019060200180831161025f57829003601f168201915b5050505050908060020160009054906101000a900460ff16908060040160009054906101000a900460ff16908060050154908060060154908060070160009054906101000a900460ff16908060070160019054906101000a900473ffffffffffffffffffffffffffffffffffffffff16905088565b6000845111610335576040517f08c379a000000000000000000000000000000000000000000000000000000000815260040161032c90612456565b60405180910390fd5b600160008082825461034791906124a5565b925050819055506040518061012001604052808581526020018481526020018360028111156103795761037861199c565b5b8152602001828152602001600060018111156103985761039761199c565b5b81526020014281526020014281526020016001151581526020013373ffffffffffffffffffffffffffffffffffffffff16815250600160008054815260200190815260200160002060008201518160000190816103f591906126a7565b50602082015181600101908161040b91906126a7565b5060408201518160020160006101000a81548160ff021916908360028111156104375761043661199c565b5b0217905550606082015181600301908051906020019061045892919061172a565b5060808201518160040160006101000a81548160ff021916908360018111156104845761048361199c565b5b021790555060a0820151816005015560c0820151816006015560e08201518160070160006101000a81548160ff0219169083151502179055506101008201518160070160016101000a81548173ffffffffffffffffffffffffffffffffffffffff021916908373ffffffffffffffffffffffffffffffffffffffff16021790555090505060026040518061012001604052808681526020018581526020018460028111156105355761053461199c565b5b8152602001838152602001600060018111156105545761055361199c565b5b81526020014281526020014281526020016001151581526020013373ffffffffffffffffffffffffffffffffffffffff16815250908060018154018082558091505060019003906000526020600020906008020160009091909190915060008201518160000190816105c691906126a7565b5060208201518160010190816105dc91906126a7565b5060408201518160020160006101000a81548160ff021916908360028111156106085761060761199c565b5b0217905550606082015181600301908051906020019061062992919061172a565b5060808201518160040160006101000a81548160ff021916908360018111156106555761065461199c565b5b021790555060a0820151816005015560c0820151816006015560e08201518160070160006101000a81548160ff0219169083151502179055506101008201518160070160016101000a81548173ffffffffffffffffffffffffffffffffffffffff021916908373ffffffffffffffffffffffffffffffffffffffff160217905550505050505050565b60606002805480602002602001604051908101604052809291908181526020016000905b82821015610a2d578382906000526020600020906008020160405180610120016040529081600082018054610736906123d9565b80601f0160208091040260200160405190810160405280929190818152602001828054610762906123d9565b80156107af5780601f10610784576101008083540402835291602001916107af565b820191906000526020600020905b81548152906001019060200180831161079257829003601f168201915b505050505081526020016001820180546107c8906123d9565b80601f01602080910402602001604051908101604052809291908181526020018280546107f4906123d9565b80156108415780601f1061081657610100808354040283529160200191610841565b820191906000526020600020905b81548152906001019060200180831161082457829003601f168201915b505050505081526020016002820160009054906101000a900460ff16600281111561086f5761086e61199c565b5b60028111156108815761088061199c565b5b815260200160038201805480602002602001604051908101604052809291908181526020016000905b828210156109565783829060005260206000200180546108c9906123d9565b80601f01602080910402602001604051908101604052809291908181526020018280546108f5906123d9565b80156109425780601f1061091757610100808354040283529160200191610942565b820191906000526020600020905b81548152906001019060200180831161092557829003601f168201915b5050505050815260200190600101906108aa565b5050505081526020016004820160009054906101000a900460ff1660018111156109835761098261199c565b5b60018111156109955761099461199c565b5b815260200160058201548152602001600682015481526020016007820160009054906101000a900460ff161515151581526020016007820160019054906101000a900473ffffffffffffffffffffffffffffffffffffffff1673ffffffffffffffffffffffffffffffffffffffff1673ffffffffffffffffffffffffffffffffffffffff168152505081526020019060010190610702565b50505050905090565b600160008760ff16815260200190815260200160002060070160009054906101000a900460ff16610a9c576040517f08c379a0000000000000000000000000000000000000000000000000000000008152600401610a93906127eb565b60405180910390fd5b3373ffffffffffffffffffffffffffffffffffffffff16600160008860ff16815260200190815260200160002060070160019054906101000a900473ffffffffffffffffffffffffffffffffffffffff1673ffffffffffffffffffffffffffffffffffffffff1614610b43576040517f08c379a0000000000000000000000000000000000000000000000000000000008152600401610b3a9061287d565b60405180910390fd5b604051602001610b52906128f4565b6040516020818303038152906040528051906020012081604051602001610b79919061293f565b6040516020818303038152906040528051906020012003610f5057604051806101200160405280868152602001858152602001846002811115610bbf57610bbe61199c565b5b8152602001838152602001600180811115610bdd57610bdc61199c565b5b8152602001600160008960ff1681526020019081526020016000206005015481526020014281526020016001151581526020013373ffffffffffffffffffffffffffffffffffffffff16815250600160008860ff1681526020019081526020016000206000820151816000019081610c5591906126a7565b506020820151816001019081610c6b91906126a7565b5060408201518160020160006101000a81548160ff02191690836002811115610c9757610c9661199c565b5b02179055506060820151816003019080519060200190610cb892919061172a565b5060808201518160040160006101000a81548160ff02191690836001811115610ce457610ce361199c565b5b021790555060a0820151816005015560c0820151816006015560e08201518160070160006101000a81548160ff0219169083151502179055506101008201518160070160016101000a81548173ffffffffffffffffffffffffffffffffffffffff021916908373ffffffffffffffffffffffffffffffffffffffff160217905550905050604051806101200160405280868152602001858152602001846002811115610d9357610d9261199c565b5b8152602001838152602001600180811115610db157610db061199c565b5b8152602001600160008960ff1681526020019081526020016000206005015481526020014281526020016001151581526020013373ffffffffffffffffffffffffffffffffffffffff1681525060028760ff1681548110610e1557610e1461295a565b5b90600052602060002090600802016000820151816000019081610e3891906126a7565b506020820151816001019081610e4e91906126a7565b5060408201518160020160006101000a81548160ff02191690836002811115610e7a57610e7961199c565b5b02179055506060820151816003019080519060200190610e9b92919061172a565b5060808201518160040160006101000a81548160ff02191690836001811115610ec757610ec661199c565b5b021790555060a0820151816005015560c0820151816006015560e08201518160070160006101000a81548160ff0219169083151502179055506101008201518160070160016101000a81548173ffffffffffffffffffffffffffffffffffffffff021916908373ffffffffffffffffffffffffffffffffffffffff16021790555090505061130a565b604051806101200160405280868152602001858152602001846002811115610f7b57610f7a61199c565b5b815260200183815260200160006001811115610f9a57610f9961199c565b5b8152602001600160008960ff1681526020019081526020016000206005015481526020014281526020016001151581526020013373ffffffffffffffffffffffffffffffffffffffff16815250600160008860ff168152602001908152602001600020600082015181600001908161101291906126a7565b50602082015181600101908161102891906126a7565b5060408201518160020160006101000a81548160ff021916908360028111156110545761105361199c565b5b0217905550606082015181600301908051906020019061107592919061172a565b5060808201518160040160006101000a81548160ff021916908360018111156110a1576110a061199c565b5b021790555060a0820151816005015560c0820151816006015560e08201518160070160006101000a81548160ff0219169083151502179055506101008201518160070160016101000a81548173ffffffffffffffffffffffffffffffffffffffff021916908373ffffffffffffffffffffffffffffffffffffffff1602179055509050506040518061012001604052808681526020018581526020018460028111156111505761114f61199c565b5b81526020018381526020016000600181111561116f5761116e61199c565b5b8152602001600160008960ff1681526020019081526020016000206005015481526020014281526020016001151581526020013373ffffffffffffffffffffffffffffffffffffffff1681525060028760ff16815481106111d3576111d261295a565b5b906000526020600020906008020160008201518160000190816111f691906126a7565b50602082015181600101908161120c91906126a7565b5060408201518160020160006101000a81548160ff021916908360028111156112385761123761199c565b5b0217905550606082015181600301908051906020019061125992919061172a565b5060808201518160040160006101000a81548160ff021916908360018111156112855761128461199c565b5b021790555060a0820151816005015560c0820151816006015560e08201518160070160006101000a81548160ff0219169083151502179055506101008201518160070160016101000a81548173ffffffffffffffffffffffffffffffffffffffff021916908373ffffffffffffffffffffffffffffffffffffffff1602179055509050505b505050505050565b61131a611783565b60005482111561135f576040517f08c379a0000000000000000000000000000000000000000000000000000000008152600401611356906129d5565b60405180910390fd5b60008210156113a3576040517f08c379a000000000000000000000000000000000000000000000000000000000815260040161139a90612a67565b60405180910390fd5b6001600083815260200190815260200160002060070160009054906101000a900460ff16611406576040517f08c379a00000000000000000000000000000000000000000000000000000000081526004016113fd906127eb565b60405180910390fd5b6001600083815260200190815260200160002060405180610120016040529081600082018054611435906123d9565b80601f0160208091040260200160405190810160405280929190818152602001828054611461906123d9565b80156114ae5780601f10611483576101008083540402835291602001916114ae565b820191906000526020600020905b81548152906001019060200180831161149157829003601f168201915b505050505081526020016001820180546114c7906123d9565b80601f01602080910402602001604051908101604052809291908181526020018280546114f3906123d9565b80156115405780601f1061151557610100808354040283529160200191611540565b820191906000526020600020905b81548152906001019060200180831161152357829003601f168201915b505050505081526020016002820160009054906101000a900460ff16600281111561156e5761156d61199c565b5b60028111156115805761157f61199c565b5b815260200160038201805480602002602001604051908101604052809291908181526020016000905b828210156116555783829060005260206000200180546115c8906123d9565b80601f01602080910402602001604051908101604052809291908181526020018280546115f4906123d9565b80156116415780601f1061161657610100808354040283529160200191611641565b820191906000526020600020905b81548152906001019060200180831161162457829003601f168201915b5050505050815260200190600101906115a9565b5050505081526020016004820160009054906101000a900460ff1660018111156116825761168161199c565b5b60018111156116945761169361199c565b5b815260200160058201548152602001600682015481526020016007820160009054906101000a900460ff161515151581526020016007820160019054906101000a900473ffffffffffffffffffffffffffffffffffffffff1673ffffffffffffffffffffffffffffffffffffffff1673ffffffffffffffffffffffffffffffffffffffff16815250509050919050565b60005481565b828054828255906000526020600020908101928215611772579160200282015b8281111561177157825182908161176191906126a7565b509160200191906001019061174a565b5b50905061177f919061180b565b5090565b6040518061012001604052806060815260200160608152602001600060028111156117b1576117b061199c565b5b815260200160608152602001600060018111156117d1576117d061199c565b5b81526020016000815260200160008152602001600015158152602001600073ffffffffffffffffffffffffffffffffffffffff1681525090565b5b8082111561182b5760008181611822919061182f565b5060010161180c565b5090565b50805461183b906123d9565b6000825580601f1061184d575061186c565b601f01602090049060005260206000209081019061186b919061186f565b5b50565b5b80821115611888576000816000905550600101611870565b5090565b6000604051905090565b600080fd5b600080fd5b6000819050919050565b6118b3816118a0565b81146118be57600080fd5b50565b6000813590506118d0816118aa565b92915050565b6000602082840312156118ec576118eb611896565b5b60006118fa848285016118c1565b91505092915050565b600081519050919050565b600082825260208201905092915050565b60005b8381101561193d578082015181840152602081019050611922565b8381111561194c576000848401525b50505050565b6000601f19601f8301169050919050565b600061196e82611903565b611978818561190e565b935061198881856020860161191f565b61199181611952565b840191505092915050565b7f4e487b7100000000000000000000000000000000000000000000000000000000600052602160045260246000fd5b600381106119dc576119db61199c565b5b50565b60008190506119ed826119cb565b919050565b60006119fd826119df565b9050919050565b611a0d816119f2565b82525050565b60028110611a2457611a2361199c565b5b50565b6000819050611a3582611a13565b919050565b6000611a4582611a27565b9050919050565b611a5581611a3a565b82525050565b611a64816118a0565b82525050565b60008115159050919050565b611a7f81611a6a565b82525050565b600073ffffffffffffffffffffffffffffffffffffffff82169050919050565b6000611ab082611a85565b9050919050565b611ac081611aa5565b82525050565b6000610100820190508181036000830152611ae1818b611963565b90508181036020830152611af5818a611963565b9050611b046040830189611a04565b611b116060830188611a4c565b611b1e6080830187611a5b565b611b2b60a0830186611a5b565b611b3860c0830185611a76565b611b4560e0830184611ab7565b9998505050505050505050565b600080fd5b600080fd5b7f4e487b7100000000000000000000000000000000000000000000000000000000600052604160045260246000fd5b611b9482611952565b810181811067ffffffffffffffff82111715611bb357611bb2611b5c565b5b80604052505050565b6000611bc661188c565b9050611bd28282611b8b565b919050565b600067ffffffffffffffff821115611bf257611bf1611b5c565b5b611bfb82611952565b9050602081019050919050565b82818337600083830152505050565b6000611c2a611c2584611bd7565b611bbc565b905082815260208101848484011115611c4657611c45611b57565b5b611c51848285611c08565b509392505050565b600082601f830112611c6e57611c6d611b52565b5b8135611c7e848260208601611c17565b91505092915050565b60038110611c9457600080fd5b50565b600081359050611ca681611c87565b92915050565b600067ffffffffffffffff821115611cc757611cc6611b5c565b5b602082029050602081019050919050565b600080fd5b6000611cf0611ceb84611cac565b611bbc565b90508083825260208201905060208402830185811115611d1357611d12611cd8565b5b835b81811015611d5a57803567ffffffffffffffff811115611d3857611d37611b52565b5b808601611d458982611c59565b85526020850194505050602081019050611d15565b5050509392505050565b600082601f830112611d7957611d78611b52565b5b8135611d89848260208601611cdd565b91505092915050565b60008060008060808587031215611dac57611dab611896565b5b600085013567ffffffffffffffff811115611dca57611dc961189b565b5b611dd687828801611c59565b945050602085013567ffffffffffffffff811115611df757611df661189b565b5b611e0387828801611c59565b9350506040611e1487828801611c97565b925050606085013567ffffffffffffffff811115611e3557611e3461189b565b5b611e4187828801611d64565b91505092959194509250565b600081519050919050565b600082825260208201905092915050565b6000819050602082019050919050565b600082825260208201905092915050565b6000611e9582611903565b611e9f8185611e79565b9350611eaf81856020860161191f565b611eb881611952565b840191505092915050565b611ecc816119f2565b82525050565b600081519050919050565b600082825260208201905092915050565b6000819050602082019050919050565b6000611f0a8383611e8a565b905092915050565b6000602082019050919050565b6000611f2a82611ed2565b611f348185611edd565b935083602082028501611f4685611eee565b8060005b85811015611f825784840389528151611f638582611efe565b9450611f6e83611f12565b925060208a01995050600181019050611f4a565b50829750879550505050505092915050565b611f9d81611a3a565b82525050565b611fac816118a0565b82525050565b611fbb81611a6a565b82525050565b611fca81611aa5565b82525050565b6000610120830160008301518482036000860152611fee8282611e8a565b915050602083015184820360208601526120088282611e8a565b915050604083015161201d6040860182611ec3565b50606083015184820360608601526120358282611f1f565b915050608083015161204a6080860182611f94565b5060a083015161205d60a0860182611fa3565b5060c083015161207060c0860182611fa3565b5060e083015161208360e0860182611fb2565b50610100830151612098610100860182611fc1565b508091505092915050565b60006120af8383611fd0565b905092915050565b6000602082019050919050565b60006120cf82611e4d565b6120d98185611e58565b9350836020820285016120eb85611e69565b8060005b85811015612127578484038952815161210885826120a3565b9450612113836120b7565b925060208a019950506001810190506120ef565b50829750879550505050505092915050565b6000602082019050818103600083015261215381846120c4565b905092915050565b600060ff82169050919050565b6121718161215b565b811461217c57600080fd5b50565b60008135905061218e81612168565b92915050565b600281106121a157600080fd5b50565b6000813590506121b381612194565b92915050565b60008060008060008060c087890312156121d6576121d5611896565b5b60006121e489828a0161217f565b965050602087013567ffffffffffffffff8111156122055761220461189b565b5b61221189828a01611c59565b955050604087013567ffffffffffffffff8111156122325761223161189b565b5b61223e89828a01611c59565b945050606061224f89828a01611c97565b935050608087013567ffffffffffffffff8111156122705761226f61189b565b5b61227c89828a01611d64565b92505060a061228d89828a016121a4565b9150509295509295509295565b60006101208301600083015184820360008601526122b88282611e8a565b915050602083015184820360208601526122d28282611e8a565b91505060408301516122e76040860182611ec3565b50606083015184820360608601526122ff8282611f1f565b91505060808301516123146080860182611f94565b5060a083015161232760a0860182611fa3565b5060c083015161233a60c0860182611fa3565b5060e083015161234d60e0860182611fb2565b50610100830151612362610100860182611fc1565b508091505092915050565b60006020820190508181036000830152612387818461229a565b905092915050565b60006020820190506123a46000830184611a5b565b92915050565b7f4e487b7100000000000000000000000000000000000000000000000000000000600052602260045260246000fd5b600060028204905060018216806123f157607f821691505b602082108103612404576124036123aa565b5b50919050565b7f506c656173652061646420612076616c696420746f646f206974656d21000000600082015250565b6000612440601d8361190e565b915061244b8261240a565b602082019050919050565b6000602082019050818103600083015261246f81612433565b9050919050565b7f4e487b7100000000000000000000000000000000000000000000000000000000600052601160045260246000fd5b60006124b0826118a0565b91506124bb836118a0565b9250827fffffffffffffffffffffffffffffffffffffffffffffffffffffffffffffffff038211156124f0576124ef612476565b5b828201905092915050565b60008190508160005260206000209050919050565b60006020601f8301049050919050565b600082821b905092915050565b60006008830261255d7fffffffffffffffffffffffffffffffffffffffffffffffffffffffffffffffff82612520565b6125678683612520565b95508019841693508086168417925050509392505050565b6000819050919050565b60006125a461259f61259a846118a0565b61257f565b6118a0565b9050919050565b6000819050919050565b6125be83612589565b6125d26125ca826125ab565b84845461252d565b825550505050565b600090565b6125e76125da565b6125f28184846125b5565b505050565b5b818110156126165761260b6000826125df565b6001810190506125f8565b5050565b601f82111561265b5761262c816124fb565b61263584612510565b81016020851015612644578190505b61265861265085612510565b8301826125f7565b50505b505050565b600082821c905092915050565b600061267e60001984600802612660565b1980831691505092915050565b6000612697838361266d565b9150826002028217905092915050565b6126b082611903565b67ffffffffffffffff8111156126c9576126c8611b5c565b5b6126d382546123d9565b6126de82828561261a565b600060209050601f83116001811461271157600084156126ff578287015190505b612709858261268b565b865550612771565b601f19841661271f866124fb565b60005b8281101561274757848901518255600182019150602085019450602081019050612722565b868310156127645784890151612760601f89168261266d565b8355505b6001600288020188555050505b505050505050565b7f546f646f206974656d20646f6573206e6f742065786973747320796f7520776160008201527f6e7420746f207570646174650000000000000000000000000000000000000000602082015250565b60006127d5602c8361190e565b91506127e082612779565b604082019050919050565b60006020820190508181036000830152612804816127c8565b9050919050565b7f4e6f7420617574686f72697a656420746f207570646174652074686520746f6460008201527f6f206974656d2100000000000000000000000000000000000000000000000000602082015250565b600061286760278361190e565b91506128728261280b565b604082019050919050565b600060208201905081810360008301526128968161285a565b9050919050565b600081905092915050565b7f646f6e6500000000000000000000000000000000000000000000000000000000600082015250565b60006128de60048361289d565b91506128e9826128a8565b600482019050919050565b60006128ff826128d1565b9150819050919050565b60008160f81b9050919050565b600061292182612909565b9050919050565b61293961293482611a3a565b612916565b82525050565b600061294b8284612928565b60018201915081905092915050565b7f4e487b7100000000000000000000000000000000000000000000000000000000600052603260045260246000fd5b7f496e76616c696420546f646f204e756d62657200000000000000000000000000600082015250565b60006129bf60138361190e565b91506129ca82612989565b602082019050919050565b600060208201905081810360008301526129ee816129b2565b9050919050565b7f546f646f20636f756e742063616e206e6f74206265206c657373207468616e2060008201527f7a65726f00000000000000000000000000000000000000000000000000000000602082015250565b6000612a5160248361190e565b9150612a5c826129f5565b604082019050919050565b60006020820190508181036000830152612a8081612a44565b905091905056fea264697066735822122025cb6cdce30bdb025ea6238d89d56e093eb0d375c174903c28420cd6c31d7cf664736f6c634300080f0033",
  "immutableReferences": {},
  "source": "//SPDX-License-Identifier: UNLICENSED\r\npragma solidity ^0.8.0;\r\n\r\ncontract Todo {\r\n    uint256 public todoCount = 0;\r\n    //@TODO list of users\r\n\r\n    // list of todos\r\n    enum Status {\r\n        pending,\r\n        done\r\n    }\r\n    enum Category {\r\n        sensitive,\r\n        urgent,\r\n        normal\r\n    }\r\n\r\n    struct TodoStruct {\r\n        string task;\r\n        string taskTitle;\r\n        Category taskCategory;\r\n        string[] taskTags;\r\n        Status status;\r\n        uint256 createdAt;\r\n        uint256 updatedAt;\r\n        bool isValue;\r\n        address user;\r\n    }\r\n\r\n    mapping(uint256 => TodoStruct) todos;\r\n    TodoStruct[] public todosArr;\r\n\r\n    // user to todos relation\r\n\r\n    // ---------- Functions ----------- //\r\n\r\n    function addTodo(\r\n        string memory _task,\r\n        string memory _taskTitle,\r\n        Category _taskCategory,\r\n        string[] memory _taskTags\r\n    ) public {\r\n        require(bytes(_task).length > 0, \"Please add a valid todo item!\");\r\n\r\n        // update todo count\r\n        todoCount += 1;\r\n        // add todo to todos mapping\r\n        todos[todoCount] = TodoStruct(\r\n            _task,\r\n            _taskTitle,\r\n            Category(_taskCategory),\r\n            _taskTags,\r\n            Status.pending,\r\n            block.timestamp,\r\n            block.timestamp,\r\n            true,\r\n            msg.sender\r\n        );\r\n        todosArr.push(\r\n            TodoStruct(\r\n                _task,\r\n                _taskTitle,\r\n                Category(_taskCategory),\r\n                _taskTags,\r\n                Status.pending,\r\n                block.timestamp,\r\n                block.timestamp,\r\n                true,\r\n                msg.sender\r\n            )\r\n        );\r\n    }\r\n\r\n    function updateTodo(\r\n        uint8 _num,\r\n        string memory _task,\r\n        string memory _taskTitle,\r\n        Category _taskCategory,\r\n        string[] memory _taskTags,\r\n        Status _status\r\n    ) public {\r\n        // check if the todo item exists\r\n        require(\r\n            todos[_num].isValue,\r\n            \"Todo item does not exists you want to update\"\r\n        );\r\n        // check if user updating the todo is the one who had created it\r\n        require(\r\n            todos[_num].user == msg.sender,\r\n            \"Not authorized to update the todo item!\"\r\n        );\r\n        if (\r\n            keccak256(abi.encodePacked(_status)) ==\r\n            keccak256(abi.encodePacked(\"done\"))\r\n        ) {\r\n            todos[_num] = TodoStruct(\r\n                _task,\r\n                _taskTitle,\r\n                Category(_taskCategory),\r\n                _taskTags,\r\n                Status.done,\r\n                todos[_num].createdAt,\r\n                block.timestamp,\r\n                true,\r\n                msg.sender\r\n            );\r\n            todosArr[_num] = TodoStruct(\r\n                _task,\r\n                _taskTitle,\r\n                Category(_taskCategory),\r\n                _taskTags,\r\n                Status.done,\r\n                todos[_num].createdAt,\r\n                block.timestamp,\r\n                true,\r\n                msg.sender\r\n            );\r\n        } else {\r\n            todos[_num] = TodoStruct(\r\n                _task,\r\n                _taskTitle,\r\n                Category(_taskCategory),\r\n                _taskTags,\r\n                Status.pending,\r\n                todos[_num].createdAt,\r\n                block.timestamp,\r\n                true,\r\n                msg.sender\r\n            );\r\n            todosArr[_num] = TodoStruct(\r\n                _task,\r\n                _taskTitle,\r\n                Category(_taskCategory),\r\n                _taskTags,\r\n                Status.pending,\r\n                todos[_num].createdAt,\r\n                block.timestamp,\r\n                true,\r\n                msg.sender\r\n            );\r\n        }\r\n    }\r\n\r\n    // get single todo\r\n    function getTodo(uint256 _num) public view returns (TodoStruct memory) {\r\n        require(_num <= todoCount, \"Invalid Todo Number\");\r\n        require(_num >= 0, \"Todo count can not be less than zero\");\r\n        // check if the todo item exists\r\n        require(\r\n            todos[_num].isValue,\r\n            \"Todo item does not exists you want to update\"\r\n        );\r\n        return todos[_num];\r\n    }\r\n\r\n    function getAllTodos() public view returns (TodoStruct[] memory) {\r\n        return todosArr;\r\n    }\r\n}\r\n// const instance = await Todo.deployed()\r\n// await instance.addTodo(\"Setup a new proect for jobs-bharo application in next.js as frontend and typescript express as backend\",\"Jobs-bharo Application Setup\",2,[\"React.js\",\"Next.js\",\"Typescript,\"Express\",\"MongoDB\"])\r\n// await instance.updateTodo(1,\"Setup a new proect for jobs-bharo application in next.js as frontend and typescript express as backend - UPDATED\",\"Jobs-bharo Application Setup\",2,[\"React.js\",\"Next.js\",\"Typescript\",\"Express\",\"MongoDB\"],0)\r\n",
  "sourcePath": "C:\\web development\\My Projects\\Blockchain\\todo_3.0\\contracts\\Todo.sol",
  "compiler": {
    "name": "solc",
    "version": "0.8.15+commit.e14f2714.Emscripten.clang"
  },
  "schemaVersion": "3.4.7",
  "updatedAt": "2022-06-24T19:30:02.641Z",
  "networkType": "ethereum",
  "devdoc": {
    "kind": "dev",
    "methods": {},
    "version": 1
  },
  "userdoc": {
    "kind": "user",
    "methods": {},
    "version": 1
  }
}